:020000040000fa
:080000000002040000000000f2
:020000040000fa
:100400004f5221000e7f22000e01880000000000e4
:100410000c000700a0b52700010020000f00070016
:10042000000020000000e000020032000000020096
:100430000000000002740200000000000040da002a
:100440000000fe00000d20000000e000020032006d
:10045000002020009001880000000600a102880012
:10046000800078000000eb001a003700e2804000b6
:1004700054a0b4009101ba00e280400054a0b4003e
:100480009102ba00e280400054a0b4000002eb00e8
:10049000472bde00f507b200a6018800602ce100c2
:1004a00008003a000049eb000201e80002003900b0
:1004b0003420ec0002f0a0008301e900f9ff3e00c7
:1004c000040037006128e100010032000082eb00e7
:1004d000040007001101ba000200e000e3ff3a0047
:1004e0000000060004d0a300e20f49001c00390000
:1004f000810278003549ba000201e80002003900a3
:100500003420ec0002f0a0008301e9000f0032006b
:100510002549ba000201e800020039003420ec004d
:1005200002f0a0008301e900080032000400e000ae
:100530000600320015c9ba000201e80002003900c5
:100540003420ec0002f0a0008301e9008180e80083
:1005500054a0b4000300e000e2ff3a0000000600ef
:100560009102ba00055978008301e900f7ff3200d3
:10057000c82ade00055978008301e900f3ff320044
:100580000400e000f1ff320011d9ba00eeff37009d
:100590000040da000000fe0003f0a200889fbe00c9
:1005a0008a9fbe008c1f7800ac000700b3003300a8
:1005b0006450e1004f0032006420e100520032003c
:1005c00003826c0007003b000905d0000306d00041
:1005d000820f54000c065d00020039000200320058
:1005e00089017800030678008582550004003d00eb
:1005f0000003fd008103fd008502ea008b854200b7
:10060000840f720002003b0060001000e0801800c0
:100610006011b8000005eb007a28e1000a003900fb
:1006200006007800c75ddd00f707b200878075001f
:100630002d003700828171000a0178006105600099
:100640008180d1000080d3008502e900f9ff3b00e2
:10065000060440008784480002003b006004140048
:10066000e0841c000988a300070032008a81710021
:1006700082817100610164008904d1000884d30083
:100680008b05e800170037000978a30013003a0033
:100690000b00e000130034008b05e900080444005f
:1006a00089844c000a4474000978a3000d003a00c4
:1006b0000b00e000070034008b05e900080444004b
:1006c00089844c0001003a000b0020000978a30047
:1006d000f7ff32000001eb00020037008281710059
:1006e0000a017800370007000cf0a70001f0a00015
:1006f0006b0037006420e10002003a00838f6c0039
:100700006b0033000801be000200be006400370029
:10071000f4ff2f0069003700889fbe008a9fbe004b
:10072000010578000100e0000400350008003c00ed
:100730000000e000200032000500370060001000db
:10074000e080180002003b0001f02c001a00370086
:100750000004be006011b8006b0920000982cf00c0
:10076000020039000882cf000441b0006942520003
:100770000e00320008003b008281710061016400bc
:100780008904d1000884d3008b05e8000442e80006
:10079000f9ff3a00050037000804440089844c0042
:1007a0008b05e9000442e900fbff3a000500070061
:1007b0000af0a70001f0a0004f05be004f04be00e4
:1007c0000000060081002000618055000b003d0004
:1007d0000b00200061fe2f000100e1001d0034002d
:1007e00082817100610164008904d1000884d30012
:1007f0000000e800faff3a00710020006100640088
:10080000030070000200600009003200610444002f
:10081000e0844c000988a500050032008b05e80043
:100820006808e10002003a008904d1000884d3007e
:10083000f20f20000258e10005003d00c75ddd0019
:10084000f907b200898075000800780000000600f2
:100850000bf827008b007800000005000004be00a4
:10086000310007000003be000405be000200be0008
:100870002d000700844f7500000006000200be0036
:100880006450e100050036006420e10002003600fb
:100890000968a30001003a000800be000160a00042
:1008a0004f0678004f05be004f04be000000060052
:1008b000f0ff2f00f1ff2700f9ff3700889fbe00ef
:1008c0008a9fbe00841f7800e4ff07004f00780075
:1008d00011003300f0ff2f00838f6c0006003b00f7
:1008e000040565000a00a7000800370009f0a6000b
:1008f0001000200008003700820f5400838f5c0036
:10090000030039001000200001003e00000020001c
:1009100009f0a7000000ea004f05be004f04be002a
:100920000000e00000000600c70ade00f107b20088
:10093000f50fb20008003200e1cf420002003200a1
:100940000170a00024000500810f7000010032003a
:100950000408050044000500810f700002003a0001
:10096000140005008502e9000000400081c0480035
:10097000fcff3b000170a000240005000400fa0009
:10098000e0bf9f00e4815700812978000002eb005e
:100990000f0037006fb89700904078007fb897003d
:1009a000104078000402e80080cf500004003200bc
:1009b0008180fb000080fb000080500007003700b2
:1009c0006fb897000000e800e0bf9f009309e800bf
:1009d000820f5200efff3a000000eb000080fa00a7
:1009e000000006008001eb000200370061f0790092
:1009f0008301e800828f5100fcff3a0000000600ee
:100a0000889fbe008a9fbe008c9fbe0000017800b8
:100a1000a1d120001100e0000b003a00e0d120003d
:100a2000d0688800b0688800f1688800c1688800d4
:100a3000214090000004a000a04098006140900078
:100a40000004a000e0409800e7004100c208de007a
:100a5000c20cdd00c46880004dd22000405221004d
:100a60000d05500022002000811f780011000900b0
:100a70000205d80000067800cf007800c308dd002a
:100a8000e48540008001eb0046d22000a5d1200083
:100a90000100370001027800244090000008a30004
:100aa000020032000a003700110a78009400780032
:100ab000214090000008a300fbff32000901420022
:100ac000828f500002003900840f5100460031002f
:100ad00094007800848f5000eeff3e00868f500017
:100ae00002003900858f5000eaff3900b0688000ad
:100af000800f52004f003a00858f50004d003a00a1
:100b00008301e800e18f5100e2ff36008c8f540032
:100b1000040036008a8f5400020031000b04780074
:100b200012003700614ab8006151b900b0ff2f00d0
:100b3000010020000200500083805800800f520006
:100b4000818f5a0002003500090478000700370041
:100b50000d80540072522100020040001100090073
:100b60000a80d8000a80b9000004780008007800e4
:100b70006800070080017800e10f40002d0032007e
:100b8000b068800003087800b2688000640041000b
:100b9000a2409000808f5100020032000104a000aa
:100ba000010037000104a1002141980008804100a4
:100bb0006400500080097800b0688800a2d120004d
:100bc00002087800b1688000214090000004a00075
:100bd000a0409800234090000004a100a04198008c
:100be00002027800a7ff3700c2688800828f500099
:100bf000090036009200780040d12000a241900008
:100c00000348780091688800140978008040eb0060
:100c1000c068800021409800c0688000000a780009
:100c2000244090000004a00020429800640042008c
:100c3000010037000000eb004f06be004f05be006c
:100c40004f04be000000060064005000c068880029
:100c5000a04090000104a10021409800000006007f
:100c6000889fbe008a9fbe0000057800e401500006
:100c700013001000c285de00234090000008a3008e
:100c800004003200c3688800234090000004a100e3
:100c9000a04198000100780059ff07000004780087
:100ca0000000e000170032008a0f500015003200eb
:100cb00060b8970008005000c284de00898f55009c
:100cc00001003600890578004259dd008a0078006d
:100cd0000800780043ff07008a0f54000900310024
:100ce0004248dd00000044008a0f50000500360035
:100cf0000a0050000000440092688000a368800051
:100d00000288be00080078004f05be004f04be00f8
:100d100000000600889fbe008004780010698000f3
:100d20000000e00003003a00100007000000e000af
:100d30000a003500106980000900e00002003a0056
:100d40000004780006003700000478000900400025
:100d5000060007000000e00001003d000084eb00f9
:100d6000080078004f04be000000060080007800f4
:100d70000000e00004003a0040d220001069880022
:100d800001017800060037000081eb00405221008d
:100d9000808f500002003e00116988000001eb00c6
:080da0000200780000000600cb
:020000040000fa
:020000040002f8
:04aff400ffff00005b
:020000040000fa
:020000040002f8
:04aff8002ef800002f
:020000040000fa
:020000040002f8
:04affc00d93f000039
:020000040000fa
:10000800c8020000c8020000c8020000c8020000c0
:10001800c8020000c8020000c8020000c8020000b0
:10002800c8020000c8020000c8020000c8020000a0
:10003800c8020000c8020000c8020000c802000090
:10004800f2740000c8020000c8020000c8020000e4
:10005800c8020000c8020000c8020000c802000070
:10006800c8020000c8020000c8020000c802000060
:10007800746f0000c8020000c8020000c802000037
:10008800c8020000c8020000c8020000c802000040
:10009800c8020000c802000028750000c80200005d
:1000a800c8020000c8020000c8020000c802000020
:1000b800c8020000c8020000c8020000c802000010
:1000c800c8020000c8020000c8020000c802000000
:1000d800c8020000c8020000c8020000c8020000f0
:1000e800c8020000c8020000c8020000c8020000e0
:1000f800c8020000c8020000c8020000c8020000d0
:10010800c8020000c8020000c8020000c8020000bf
:10011800c8020000c8020000c8020000c8020000af
:10012800c8020000c8020000c8020000c80200009f
:10013800c8020000c8020000c8020000c80200008f
:10014800c8020000c8020000c8020000c80200007f
:10015800c8020000c8020000c8020000c80200006f
:10016800c8020000c8020000c8020000c80200005f
:10017800c8020000c8020000c8020000c80200004f
:10018800c8020000c8020000c8020000c80200003f
:10019800c8020000c8020000c8020000c80200002f
:1001a800c8020000c8020000c8020000c80200001f
:1001b800c8020000c8020000c8020000c80200000f
:1001c800c8020000c8020000c8020000c8020000ff
:1001d800c8020000c8020000c8020000c8020000ef
:1001e800c8020000c8020000c8020000c8020000df
:0801f800c8020000c80200006b
:020000040000fa
:10020800c8020000c8020000c8020000c8020000be
:10021800c8020000c8020000c8020000c8020000ae
:10022800c8020000c8020000c8020000c80200009e
:10023800c8020000c8020000c8020000c80200008e
:10024800f2740000c8020000c8020000c8020000e2
:10025800c8020000c8020000c8020000c80200006e
:10026800c8020000c8020000c8020000c80200005e
:10027800746f0000c8020000c8020000c802000035
:10028800c8020000c8020000c8020000c80200003e
:10029800c8020000c802000028750000c80200005b
:1002a800c8020000c8020000c8020000c80200001e
:1002b800c8020000c8020000c8020000c80200000e
:1002c800c8020000c8020000c8020000c8020000fe
:1002d800c8020000c8020000c8020000c8020000ee
:1002e800c8020000c8020000c8020000c8020000de
:1002f800c8020000c8020000c8020000c8020000ce
:10030800c8020000c8020000c8020000c8020000bd
:10031800c8020000c8020000c8020000c8020000ad
:10032800c8020000c8020000c8020000c80200009d
:10033800c8020000c8020000c8020000c80200008d
:10034800c8020000c8020000c8020000c80200007d
:10035800c8020000c8020000c8020000c80200006d
:10036800c8020000c8020000c8020000c80200005d
:10037800c8020000c8020000c8020000c80200004d
:10038800c8020000c8020000c8020000c80200003d
:10039800c8020000c8020000c8020000c80200002d
:1003a800c8020000c8020000c8020000c80200001d
:1003b800c8020000c8020000c8020000c80200000d
:1003c800c8020000c8020000c8020000c8020000fd
:1003d800c8020000c8020000c8020000c8020000ed
:1003e800c8020000c8020000c8020000c8020000dd
:0803f800c8020000c802000069
:020000040000fa
:100da800020100000f0f0000000500000080000095
:100db8001006000000000000000000000000000015
:100dc800000a00000000000001000000020000000e
:100dd80003000000040000000500000006000000f9
:100de8002000000021000000220000000a0000008e
:100df80000800000018000000280000003800000e5
:100e080004800000058000000680000020800000ab
:100e18002180000022800000f00000000301000093
:100e2800ffff0000000500000700000009000000a7
:100e38001200000013000000140000000000000071
:100e4800000000000000000000000000000000009a
:100e58000500000005000000060000000800000072
:100e68000a0000000f00000015000000000000004c
:100e780000000000000000000000000010c1000099
:100e8800004000008e000000000000007f0000000d
:100e980000000000140000007800000000000000be
:100ea800b4000000000000002c0100000000000059
:100eb8001c02000000000000fc030000000000000d
:100ec800bc070000000000003c0f0000000000000c
:100ed8003c1e0000000000003c3c00000000000038
:100ee8003c780000000000003cf00000000000001a
:100ef8003ce00000010000003cc0000003000000ce
:100f08003c800000070000003c0000000f000000cb
:100f1800303100003233000034350000363700002d
:100f280038390000414200004344000045460000b3
:100f3800001100001101000000a3000004000000df
:020000040000fa
:100f48008000eb0060578000f007b200010032001b
:100f5800110020000100780000000600889fbe00f4
:100f6800882cef008a2cef006063800040638800c3
:100f7800c9c720000044eb004063800022c1b300d1
:100f880089007800fd3607000844e80020012000a9
:100f9800682cb400f84f5400f7ff3a000040eb000b
:100fa80070ecb70078ecb70079ecb7007a0ca900c0
:100fb800c0532a007063880050638000e2c0b30009
:100fc800e1c62000ed3607004f04be000000060011
:100fd800889fbe008a9fbe008c9fbe008106780055
:100fe8000206780001638000f16288002bc62000a9
:100ff800000578008044eb0009447800f162800025
:1010080062c0b3000b007800a736070010638000a9
:101018008a0f500002003a0019c0b30003003700dd
:101028000844e800600020005e2cb400ef4f540034
:1010380003003e000904e00003003a00efff370018
:101048000904e0000600320030638000800e78005a
:1010580064ccbf00004e78000980fb000300370015
:1010680030c0b300004e78000000eb004f06be0011
:101078004f05be004f04be0000000600484bec00c0
:1010880048ebb70002003a0010c0b30048ebb700c5
:1010980048cbbf000080fb000000060088c9bf00e5
:1010a8008000eb00050032000040e90088e9b70045
:1010b800504c8000b080fb00504c88000100780044
:1010c80000000600889fbe008a9fbe00cac7200095
:1010d8000004eb000080fb0000004000e405400035
:1010e8007240b9006c0cb4004063880022c1b300a0
:1010f800800078000a0078006b36070021648000c1
:10110800804c8000808f500009003a00c0ae20005b
:101118006b0078008880fb00f680400080804000eb
:10112800114090000004a10090409800030037008f
:101138000804e800f80f5400e9ff3a004f05be0024
:101148004f04be0000000600889fbe008a9fbe00b4
:101158008c1f7800804378000045eb0006ad200026
:1011680088ad2000960278000500e00008003200f3
:101178000704e0000700320065489000814f5000e6
:1011880004003a0045009000820f500001003a0028
:101198001ac0b3000683e800860f5400f1ff3a0036
:1011a80009c1b3000404e0000100350089c0b300a0
:1011b8000a04e0001a00320000638000f062880030
:1011c8000904e000160032002cc620000305780050
:1011d8008045eb000b447800f162800062c0b300e8
:1011e8000c00780030360700106380008a0f50002a
:1011f8000300320020638000e30f500001003a0032
:101208001bc0b3000844e800600020005e2cb40056
:1012180088cf5400f0ff3a000b80fb000100370034
:101228000000eb004f0678004f05be004f04be00db
:1012380000000600889fbe008a9fbe0080057800d7
:101248006063800040638800cac720000004eb0088
:101258004163800022c1b3000a00780012360700fb
:101268008b2cab0005003200206480008b0f5000ef
:1012780002003a000880fb00060037002001200029
:10128800682cb4000804e800f80f5400f0ff3a0096
:10129800080078004f05be004f04be00000006009d
:1012a800800178000409a80022c0b3000200780079
:1012b8008ee9b70020628000604c880034628000ac
:1012c800844c88000001fd008fe9b7000001fd0093
:1012d800004d8800c34c880040ccbf00804878008f
:1012e800a2e9b7008b69ef00e18f410008003200e6
:1012f8008b09a80003007800ceff0700f84f5000c4
:10130800030032008b0cab0001003a008b49a800a7
:1013180010c0b3008ae9b700000006000200fa0016
:10132800889fbe008a9fbe008c1f78000006780048
:1013380082057800e4cf5000130032000180fb00e2
:101348000000400001ad200060807800205090002f
:1013580062c0b3000440bc0001638000810041000a
:10136800f162880028c6200062c0b3000800780037
:10137800cd350700642cef00f062800062c0b30036
:1013880088007800fd3507007190200091407800b2
:101398000181fb008990200020c0b30000f17c008f
:1013a8000140e80007e9b7000080fb001b419000fe
:1013b80002f07c0001c0e80007e9b7000080fb00ec
:1013c8002b41900002f07c0063c040000080fb00cd
:1013d8000cf07c0064c040004865de000080fb0023
:1013e8000af07c0065c0400007e9b7000080fb00f8
:1013f8004b41900002f07c0066c0400007e9b7004e
:101408000080fb005b41900002f07c0067c0400058
:1014180007e9b7000080fb00eb4590000bf07c006b
:10142800e8c040008000fd0007e9b7008000fd002b
:10143800689020001844780010ff07008880fb009f
:1014480080f07c000840e9000080fb00a1c0b300e8
:1014580001f07c0008c0e9000080fb0071c4200096
:1014680011f07c00634054000080fb0061c4200040
:1014780011f07c00644054000080fb000af07c00fe
:10148800654054000080fb000cf07c00664054006e
:101498000080fb008040eb0001f07c0067405400b6
:1014a8000080fb0091c0b30001f07c006844540048
:1014b8000800780006e9b700804c8000ec805700ef
:1014c80077ff07004f0678004f05be004f04be00a7
:1014d8000080fa00000006000400fa00889fbe00a1
:1014e8008a9fbe008c9fbe00000578000106780028
:1014f8008206780001638000f16288002bc6200014
:1015080062c0b3000b007800673507008a047800d2
:101518000044eb00090037000844e800f16280004d
:10152800e6804000f162880062c0b3000b007800da
:101538005d350700f04f540006003200106380004c
:10154800890f5000f4ff3a00150037000084fb00b3
:101558002000370001638000f162880062c0b30098
:101568000b007800503507000044eb0009003700f5
:101578000844e800f1628000e6804000f1628800db
:1015880062c0b3000b00780047350700f04f5400e5
:101598000300320020638000e30f5000f4ff3a009c
:1015a800884e78008000eb0002ad2000050037006f
:1015b8000040e8008100e8000281e800e48f500064
:1015c800e2ff320001407800010478001200e000d8
:1015d800f7ff3a00004e780040c1b3009e3807007c
:1015e800000178008800440000ad200082307800b7
:1015f8000200e00002003a00020078001b003700f9
:101608001a6388001a0020002a638800f0628000ac
:1016180062c0b3008b007800583507000804440006
:1016280000ad2000000444009800780000c0eb00e2
:101638008050980098047800708057007738070029
:101648000fb897009fb89700808cbe0018007800ec
:101658009d4678002d509800980078000000eb0017
:10166800e0009800ec2aa8000a0078004f06be00a7
:101678004f05be004f04be000080fa0000000600bf
:101688000400fa00889fbe008a9fbe008c1f780065
:10169800000678000000eb0001af200005003700cd
:1016a8000844e8000000e8008180e800e70f5000e7
:1016b8000500320000447800800478001100e00042
:1016c800f7ff3a0003003700e74f54002c003200c0
:1016d8008884fb0000c3b3005f380700898044009a
:1016e80064854000cbae200000b57d000000e0001e
:1016f80023003200084e7800ea807d0000c0eb002d
:10170800c04898006a847d006e80570043380700ff
:101718001fb89700afb8970070049800010c9800a4
:10172800100c9800210c9800ea807d003108900088
:101738000050a100b00898006a817d00320890002e
:1017480001ff2f00010060000010a0003009980080
:101758000001eb008a0078000b02780033c0b30068
:1017680061007a0002004000735098000201e8000e
:10177800f80f5100faff3a0010002000010037006e
:101788000000eb004f0678004f05be004f04be0076
:101798000080fa0000000600114de20019003a002e
:1017a8002c0cab001400320080c7200031c1b300fc
:1017b80090cf100010003e008829ab0002003a00cc
:1017c800ed6aab000a00320010c7200041c0b30028
:1017d80090cf100008003e0090c7200051c0b30011
:1017e80090cf100004003e00ed8aab0002003a00e2
:1017f80010c0b300010037000040eb000080fb0080
:101808000000060080c7200031c1b30090cf10004f
:1018180010003e008829ab0002003a00ed6aab00d8
:101828000a00320010c7200041c0b30090cf10005a
:1018380008003e0090c7200051c0b30090cf1000b0
:1018480004003e00ed8aab0002003a0010c0b3006d
:10185800010037000040eb000080fb00000006009c
:10186800889fbe008a1f78006063800040638800fc
:10187800cac720000004eb004163800022c1b30006
:101888000a007800883407008b2cab0002003a006d
:101898000880fb000600370020012000682cb400f7
:1018a8000804e800f80f5400f3ff3a000800780035
:1018b8004f0578004f04be0000000600889fbe0058
:1018c8008a9fbe008c1f780080057800010678008a
:1018d8006063800040638800cac720000004eb00f2
:1018e8004163800022c1b3000a0078006e3407000b
:1018f8008b2cab0008003200206480008b0f500056
:1019080005003a00306480008c0f500002003a0055
:101918000880fb000600370020012000682cb40076
:101928000804e800f80f5400edff3a0008007800ba
:101938004f0678004f05be004f04be0000000600a9
:10194800889fbe008a1f7800004578006063800089
:1019580040638800c9c7200088c1b3004163800084
:1019680022c1b300090078004f3407008b2cab006c
:10197800090032000a4078008c4ce30006003a0067
:1019880031648000604c8000808f500002003a0073
:10199800100020000500370020012000682cb4004a
:1019a8000844e900edff3a000000eb004f0578001d
:1019b8004f04be0000000600889fbe0060638000e0
:1019c80040638800c9c720000044eb0041638000e1
:1019d80022c1b30009007800333407005064800046
:1019e8000098a3000e00320080007800010cb200bd
:1019f80000042000808f5000090032000100e00040
:101a080007003200882cef008a2cef00706ced0084
:101a18004063800022c1b300890078005734070072
:101a28000844e80020012000682cb400f84f540056
:101a3800e6ff3a0050638000e2c0b300e1c6200030
:101a48004e3407004f04be00000006000004e0000a
:101a5800220032002d6cef0010c2b3002eecb7004c
:101a680011c72000914078004309dd00020078008a
:101a78002fecb70080c7200033c1b30090cf11000e
:101a880016003e0000c7200073c1b30090cf1100bc
:101a980012003e006357800003b8a30006003a0016
:101aa800e4cf50000d003e00024078000074a00012
:101ab8002fecb70002003700e4cf500007003e00cb
:101ac80090c7200051c0b30090cf100003003e0023
:101ad80003c8a30001003a002f4ca800000006002c
:101ae8005264800082007800010cb20000042000db
:101af800808f500009003a00786ced0002007800f1
:101b08000003b200f00f500001003a00796ced00bc
:101b180010c0b300cdff0700010037008b2ca900cf
:101b2800882cef008a2cef004063800022c1b300ac
:101b3800c1c7200011340700706ced0050638000ad
:101b4800e2c0b300e1c620000c343700c0c7200053
:101b580001992000070009003158780020628000b0
:101b6800306488008cecef008829ab000a003a004a
:101b78008a8ca9008aaca800a06380002064880031
:101b88000000e800a0638800e20f400010003a005f
:101b9800ed6aa8000e0037008a8ca8008aaca9005c
:101ba800b063800020648800796cec009263800048
:101bb80002004000b06388006611b90031628000fd
:101bc80001014100820f500001003600ed8aa80093
:101bd800414c8000c508dd000110b200506480004f
:101be8000080a10001007000506488008acca80021
:101bf8008aeca9008b2ca8004063800022c1b300a6
:101c0800c1c72000dd330700786cec00706cec0075
:101c180050638000e2c0b300e1c62000d73307005c
:101c280010c0b30089ff3700d1082000e24f5000f0
:101c38001000320006003e00d14321000004e000fd
:101c48000c003200e14f500007003a00080037004e
:101c580051012000e34f500006003200110020001f
:101c6800e44f5000030032008000eb000100370011
:101c7800d13520000100780000000600889fbe00d2
:101c88000004be000204e00007003200810f50008b
:101c9800070031000240e900e3ff070000004400ac
:101ca800808f54000200310010002000010037002e
:101cb8000000eb004f04be0000000600889fbe0035
:101cc8008a9fbe008c1f7800800578000106780086
:101cd8006063800040638800c9c720000b05780056
:101ce8000044eb004163800022c1b3000900780082
:101cf8006d33070050648000002cb20001242000de
:101d0800810f50000e003a0023648000830f5500b5
:101d180007003200714cec00004178008b0078001d
:101d280003007800d5ff07000004e000040032003b
:101d380020648000000e78001000200006003700a4
:101d480020012000682cb4000844e800f84f540033
:101d5800e4ff3a000000eb004f0678004f05be0094
:101d68004f04be00000006000a00fa00889fbe006b
:101d78008a9fbe008c1f78000044780001467800d6
:101d88008000eb0042b02000050037000040e8006a
:101d98008100e8000281e800e88f50000500320069
:101da80001407800010578001200e000f7ff3a00d2
:101db80003003700e84f50002f0132000085fb0078
:101dc800c0c0b300a4360700800078000a004500b0
:101dd800f8044000cbae200081b47d000100e00093
:101de800250132000804e0004e0032003062800015
:101df800a000980069807d00c14c800031009800e7
:101e080069817d0006c9bf000749b50071c8b300e4
:101e1800014040002041980069807d0020409000ea
:101e28008d360700000478000000e00005003a0045
:101e380069807d008a36070088b47d004000200054
:101e48000e0137000a00450078004000c1ae2000ae
:101e580060807800080878004660dd000034a00043
:101e6800004c780089c9bf00004040001044980029
:101e780098c9bf00204498009199200091407800ab
:101e88003144980046ccbf004044980071c42000fb
:101e980091407800514498000c9920001c46780025
:101ea8006c449800a2c9bf007044980068014400bf
:101eb8006190200091407800e0c7b30080cf5000c7
:101ec8000a003e0084902000804178000140e8002c
:101ed80006e9b7000080fb0060597a006190200095
:101ee8009140780083cf5000f8ff36000749ed0095
:101ef80007e9b700e14f4000470032008200780050
:101f08008390200002c050000080fb00e0d87900d8
:101f18000749ed0007e9b700e14f40003e003200f5
:101f2800f8ff3700c0ff2f008a29b4000a004500d7
:101f380078044000c9ae200068807c00814c800095
:101f480021009800e8807c008a09ed00504c880048
:101f580010407800f0409800e8807c008a09ed0085
:101f6800504c880010407800e04098008aa9ed00a5
:101f780088c9bf006840400088e9b700e8807c0055
:101f8800a040980068807c0020409000323607000e
:101f9800800578000000e0005d0032000a0045007e
:101fa80078004000c1ae2000608078000b087800ff
:101fb8003afc0700f043b200c660dd0080cd700037
:101fc80036fc07009045980034fc0700a0459800af
:101fd80032fc0700b045980030fc0700c045980067
:101fe8002efc0700d04598002cfc07000046e900ad
:101ff800ec45980029fc0700f045980068844500e6
:102008008849e2000400320024fc0700005c7800e4
:102018008849e200fcff3a000a004500f804400045
:10202800cbae200069847d0072805700fb35070025
:102038007fb097008fb8970040049800510498002b
:1020480069807d003000900074815700f38057004c
:1020580021fd07000004e00009003a0069807d00c6
:1020680010007800fe35070069807d00fc35070008
:102078000000eb0080b47d00400020007f003700a6
:102088000409a900f0c7b30006e9b7000769ef0023
:102098005fe897000080fb000000400009ad2000c9
:1020a80060847c00e0c0b300eb3507008005780051
:1020b800600498000000e0001a003a0010002000b8
:1020c80020638800f062800062c0b30021c620004f
:1020d800aa3207005fe897000080fb00000040007c
:1020e80060807c00de3507005fe897000080fb0019
:1020f800000040000bb07c000a044500780444004e
:10210800c9ae200068807c0010007800d435070034
:1021180068807c00d23507000bb47c0040002000aa
:10212800560037005fe897000080fb000000400081
:1021380008ad200060007c0031b02000914078009c
:10214800614898005fe897000080fb0000004000ad
:1021580060007c0031628000410098005fe89700d1
:102168000080fb000000400060007c008044eb0021
:10217800794898005fe897000080fb000000400065
:1021880060017c0012089000f18f2f0001006000b0
:1021980000a0a000100998005fe897000080fb00ed
:1021a80000004000e0007c001108900000b0a10091
:1021b8009008980010c0b300804d780000c8b300a4
:1021c8009045980003cbbf00a04598000040e80068
:1021d80003ebb7000a00450078004000c2ae2000bb
:1021e800e0007900e1409000b14598006000790076
:1021f80070409000c0459800d94598009ffb0700a3
:10220800e0459800fc45980047ccbf00804d9800f9
:1022180061c4200091407800914d980000c0eb0007
:10222800a04d9800c0cfb300b04d9800c94d98009c
:1022380090c0b300d04d98006e80570077350700e6
:102248005fe897000080fb000000400060027c000f
:102258001fb89700afb89700d21f2c00f3ff2f00cc
:102268000000410081804900200298003102980056
:102278001000200001003700400020004f067800c1
:102288004f05be004f04be000080fa0000000600a3
:102298000200fa00889fbe008a9fbe008045780031
:1022a8000104780002457800830478000100780072
:1022b800e0fb0700f84f50000a003200516480002c
:1022c800010cb20000042000808f50000200320090
:1022d8000100e00003003a00880c78000000eb00e1
:1022e800260037003262800004c8b30088017800f5
:1022f8008040eb000140780093fb07000004e000f9
:1023080015003200e24f550004003a0011c0b30036
:102318000b40780094fe0700180037006a815700c8
:102328000800be002afb07000004e0000400320099
:102338006ff097000004e00007003a000e00370035
:10234800e14f550004003a008a4078000b407800bd
:1023580085fe0700090037000800be0057fe070089
:102368000004e00004003a0010cdb30088e9b7008b
:1023780020002000010037000000eb004f05be00e0
:102388004f04be000080fa0000000600889fbe00cf
:10239800300020002063880062acef0000638000fa
:1023a800f062880029c620000044eb00f06280003b
:1023b80062c0b30089007800f03107000844e800e3
:1023c800600020005e2cb400f04f5400f7ff3a0084
:1023d8004f04be0000000600889fbe008a9fbe0012
:1023e8008c1f7800804578003008800048ebb700e3
:1023f8000469ef0061578000ec2aef00ee2aef0035
:1024080000002200808060006057800000d0a1009a
:102418000100700060578800a0b420000041eb0064
:10242800a1ba2000024878000080e800808f5000a0
:10243800fcff3a000b04e00004003a00b0598000a9
:102448000000e00001003200053507000000eb0045
:10245800b0598800800478000aaf2000ccae200074
:102468000b04e0000200320009047800080037007d
:10247800090478001a0078000000e0000400320027
:1024880010007800f63407001a007800f4340700ca
:1024980008004400640040008000eb0001307e002a
:1024a8008904e8000a85e800e78f5400ecff3a0049
:1024b800810478004ab02000ccae20000b04e00074
:1024c8000200320009047800080037000904780087
:1024d8001a0078000000e0000400320010007800c4
:1024e800df3407001a007800dd34070008004400d4
:1024f800780040008000eb0001307e008904e8008d
:102508000a85e800e88f5400ecff3a00810478005f
:102518000aad20000a0678000b04e0000200320031
:102528000904780005003700090478001a007800cb
:102538000000e00001003200c93407000800440030
:102548000c0040000008eb008904e8000a85e80058
:10255800e48f5400f0ff3a008cff07004f06780024
:102568004f05be004f04be000000060010c0b300b7
:1025780099ff070051638000e2c0b300e0c6200065
:102588004931070071638000c0532a00808f5000d2
:102598000100320071fa0700a0ad20000041eb00f5
:1025a800e1ae20000248780064004000810f50002e
:1025b800fcff3a0060b120000081eb0061b320000d
:1025c8000208780064004000808f5000fcff3a0049
:1025d80000000600889fbe008a9fbe008005780024
:1025e8006063800040638800cac720000004eb00d5
:1025f8004163800022c1b3000a0078002a31070035
:102608008b2cab000800320082002000c1c72000dc
:102618000b007800d7f807000000e00002003a003d
:102628000880fb000600370020012000682cb40059
:102638000804e800f80f5400edff3a00080078009d
:102648004f05be004f04be0000000600ef04b000b6
:10265800889fbe008a9fbe008c9fbe008e1f780098
:102668008045eb0000047800e1fb2f000180470063
:102678006a3407007f9e97008fa69700ec4aab004c
:102688000f003200f45780000558800004025600fd
:1026980085825e0022b02000124178000281fb0092
:1026a8000300200040422f000010b800800f5200a5
:1026b800818f5a00020036002c0ca900ec4aa900b0
:1026c8000800e00045033a0004c9bf000008a30061
:1026d8003e0f3a00ec0aab0066013200dcaf9f0007
:1026e800edaf9f00f8af9f000eaf2000ffa9970045
:1026f800f3b79f000e0578001e0478000800e0007c
:102708004b01320018089000a80890005faa9700b3
:10271800efaa97000001520081815a00030033009c
:102728000200be00faf707000900370061006100e7
:10273800010020008301d1000281d3000200700053
:1027480083807000f2f707000001be0091f70700d0
:1027580002a02b00b3752400ebf707000000e0008f
:1027680006003400180078003d3407001a0078008d
:102778003b340700000deb002d01370038099000ad
:102788000202b2002a013a000b10a100c84c9000c6
:10279800f8cf54005a0032008042eb00a5e79f00b2
:1027a800e1cf44001b003a007800900088089000b0
:1027b8005faa9700efaa97000000520081805a0094
:1027c800f5e12400850f5000e08f580002003e001c
:1027d800a2e79f00470037000080eb00d0979f00da
:1027e8000b10a0001a04780026fc2f000680470072
:1027f8000a3407001fa09700afa09700100c98009c
:10280800210c98008044eb0011c0b300a1e79f00a1
:10281800380037000984fb000940780022c1b30062
:102828000440bc006163800081004100416388006e
:1028380022c1b300c0c720009b300700526480004b
:10284800820078000120b20004003a0076004400bb
:102858001a004000114098001c0037009a007800c8
:1028680041009000e40f400008003200e30f4000f0
:1028780002003a000288a3000400320023648000aa
:1028880031009000808f510005003a000980fb005c
:10289800008040008040eb00715098000b0037002a
:1028a8000288a30009003a00d3979f008980fb00a3
:1028b800f68040009a804000114090000004a1007a
:1028c8009040980011c0b300a1e79f008944e80038
:1028d8002fe19700614061004200dd000b24a10058
:1028e80080c575000b28a30002003a00f7cf5400fa
:1028f800c8ff36001a00780049489800420037009f
:102908000b00a0008869ef001a0178008000eb0036
:1029180004003700014078008100e800f88f50007b
:102928000500320001004100705090000008a3002b
:10293800f8ff320002003700f74f5000290032003c
:1029480000cfb30088e9b7009a01780033089000f7
:102958006f0060002300320013089000a308900065
:102968005faa9700efaa97000000520081805a00e2
:1029780035422f00850f5000e08f580015003600b3
:102988000b00a1000080eb00d0979f003308900057
:10299800ef404000ef80600002ff2f00020060005f
:1029a80001007000b00998001a04780060fc2f003c
:1029b80000804700993307003fa09700cfa09700f9
:1029c800100c9800210c980011c0b300a1e79f00db
:1029d800060037000b00a1000041eb00a2e79f00b2
:1029e800020037008041eb00a3e79f002fe2970029
:1029f800614062004200dd000b24a10080c5750023
:102a08000b08a3001f003a00afe2970061c0620004
:102a18004200dd000b24a10080c575000b28a3002f
:102a2800830032000b18a300260032007fb3970002
:102a38000600430064004000c1ae200060807800ba
:102a4800b000900030628000808f50001d003a0076
:102a58000044eb00a0b4200001c3b3000400370019
:102a68000844e8000080e800814f54000300320069
:102a78001004e000faff3a001300370010cfb3004b
:102a880088e9b700ffb19700038141006401410064
:102a9800c4ae2000e2007a0031409000a2e9b700fd
:102aa800310890000050a000b008980062007a0039
:102ab80030089000430320000048a3004f0e3a005e
:102ac800420e370008c3b30061902000914078009f
:102ad8008181fb007fb19700020041006400400043
:102ae800c4ae200060017a00324390008590200037
:102af80086f17a000140e90006e9b7000080fb0092
:102b0800c241900003f07a0001c0e90006e9b7006d
:102b18000080fb007242900004f07a0063c050000d
:102b280006e9b7000080fb006243900006f07a00d7
:102b380064c0500006e9b7000080fb00924990008d
:102b480003f07a0065c0500006e9b7000080fb007a
:102b5800024a900004f07a0066c0500006e9b70007
:102b68000080fb00224b900006f07a0067c05000fe
:102b780006e9b7000080fb00b249900003f07a0034
:102b8800e8c050000100780006e9b7000042eb00f9
:102b9800e4679f0092017800224090000004e00062
:102ba8000d0032000502780007c9bf008080fb00d5
:102bb8003343780086707a000040e80007e9b700e0
:102bc8006f6097008040e800e1679f002240900016
:102bd800814f5000f4ff3e005f90970061fa2f008c
:102be8008f804000aef9070000c3b300804f540047
:102bf800a40d32008880fb008180400090b4200042
:102c08006f61970082707800ffb1970003804100e0
:102c180064004000c4ae200060017a00a0b4200027
:102c2800324190008270780003012000f30d3700d4
:102c3800ffaa97008502e800f5af9f000e87e8001d
:102c4800e78f5200a9fe3a008040eb0000af200059
:102c5800040037008140e8000080e800e7cf50001a
:102c6800030032001000e000faff320001003700d4
:102c7800ec0aa900ec2aab00c50132000c05be0025
:102c88000001eb0003ad2000820278009300780079
:102c98000100e00051003200610290000400e000f1
:102ca8004e0032001108900000b8a30009003a0055
:102cb80021009000b10090000000550081805d0067
:102cc80026e02300860f5000e08f580043003600ae
:102cd8000800370021009000b10090000000550066
:102ce80081805d00f6c32900860f5000e08f5800f0
:102cf8003a0036000040eb00e0679f008290200019
:102d080007c9bf008080fb00b44178008370790058
:102d18000040e80007e9b7006f6397000640e80045
:102d2800e0679f00e54f5000f5ff36000040eb00dc
:102d3800e0679f008290200006c9bf008080fb00ea
:102d4800b4417800837079000040e90006e9b700d3
:102d58006f6397000640e800e0679f00e74f500068
:102d6800f5ff36008580420000ad20000084400059
:102d7800980078001108900000b0a1009008980011
:102d880098017800130990004810de006740400061
:102d9800670060004800dd00f18f2f00010161002d
:102da8000001710092099800180078002c00980022
:102db8003d009800180178009208900000702000eb
:102dc800808460002b0d3a0062009000a432070056
:102dd8001800780069009800260d37000201e80005
:102de8008381e800e40f5100a7ff3a0008ad2000f6
:102df80088047800180278000400e00022003200fd
:102e080034015500a4815d008096280091002000bf
:102e1800800f5100818f59001b003600245090000c
:102e280062c0b3000440bc0001638000810041001f
:102e3800f16288002cc6200062c0b3000c00780044
:102e4800192f070020638000e10f500006003a00a8
:102e58002000200020638800f062800062c0b30078
:102e68008c007800452f070019007800600090005a
:102e78000000e000010032007932070019007800f4
:102e880077320700800ceb000884e80080ad200052
:102e9800880f5000d6ff3a000040eb00e0679f0023
:102ea800c9ae20008005eb008a9020000080fb005e
:102eb800000040007800400060807c000000e000d6
:102ec800010132003000900081fa2f000181470093
:102ed8008180e800818047003df807000004e00099
:102ee8007e0032000f6997000204e00070003a008b
:102ef800ef6197000380fb0000004000780040006d
:102f0800e0817c00a30090000044eb003062800068
:102f1800808f500020003a0002447800a0b42000be
:102f280001c3b300040037000844e8000080e8004b
:102f3800814f5400030032001004e000faff3a0009
:102f4800150037001300780070409000a2e9b70020
:102f580010cfb30088e9b7006f6297000480fb00c8
:102f6800000040007800400060807c00100078007d
:102f78003b320700ef6297000580fb00000040002d
:102f88007800400060807c00353207006f6397004e
:102f98000680fb006500370093017800fb679f00ff
:102fa800ef6097000180fb000000400078004000bf
:102fb80060807c00204090000004e0001200320095
:102fc800849020000180fb00000040007800400051
:102fd800c1ae20006081780007c9bf008080fb0077
:102fe800b342780085707a000040e80007e9b7002e
:102ff8007f6097000040e800f0679f00a2409000c3
:1030080080cf5000f4ff3e005f90970076fa2f00c3
:1030180086804700a2f80700ef6097000180fb0058
:10302800000040007800400060817c00a200900011
:1030380030628000808f500009003a000880fb0051
:103048000000400091b42000ff61970003f0780071
:1030580012017800a1b420007241900002f07800bb
:103068006f6297000480fb00000040007800400079
:1030780060807c0010007800f9310700ef6297004b
:103088000580fb00000040007800400060807c0064
:10309800f33107006f6397000680fb0000004000d3
:1030a800780040000bb07c0003012000d30c3700ef
:1030b800e24f510084003a00ef6097000180fb0066
:1030c800000040007800400060807c00a000900074
:1030d80030628000808f50001e003a006f619700b8
:1030e8000280fb000000400078004000e0807c0087
:1030f8001100780070409000a2e9b7000b0078003a
:1031080088e9b70011007800d5310700ef61970012
:103118000380fb00000040007800400060807c00d5
:10312800cf3107006f6297000480fb000000400069
:10313800780040000bb07c000409a900f0c7b30078
:1031480006e9b7000b00780007e9b7004303200041
:10315800aa0c37006890200018447800c7f70700c9
:103168008880fb0080707d000840e9000080fb003b
:10317800a1c0b30001707d0008c0e9000080fb0019
:1031880071c4200011707d00634054000080fb0072
:1031980061c4200011707d00644154000200780071
:1031a80006e9b7000281fb0061fa2f008f8040001a
:1031b8003180fb00000040007800400060827c0005
:1031c800d442900005717d006540540006e9b700bf
:1031d8000080fb004443900006707d006640540068
:1031e8000080fb000b707d00674054000080fb00ee
:1031f80092c0b30002707d00684454000800780053
:1032080006e9b70072902000124178008281fb0025
:1032180030c0b30080717d000240e8000080fb00f0
:103228000b707d0002c0e80007e9b7000080fb00d2
:10323800e441900003707d006340410007e9b70056
:103248000080fb00f442900005707d00644141005d
:103258000200780007e9b7002400900010f8070082
:103268006f6397000680fb00000040007800400074
:1032780060807c001000780079310700ef609700cb
:103288000180fb00000040007800400060807c0066
:103298000b0878006f6197000280fb000000400077
:1032a8007800400060807c006d310700ef61970076
:1032b8000380fb0000004000780040000bb07c0059
:1032c800030120004d0c37006f6297000440e800ae
:1032d800e0679f00e74f5000f4fe36008042eb00a5
:1032e800e5679f0006638000f662880029c6200013
:1032f800f162800062c0b30009007800ea2d07007f
:1033080028638000e20f5400320c32006f6097008f
:103318000040e800e0679f00600020005e2cb400d9
:10332800ef609700efcf5000f1ff36000040eb0050
:10333800e0679f00040be20015003a0061b020002e
:103348000040e800e0679f00e84f500003003200ab
:103358003100e0000e003a00f9ff37000040eb00b2
:10336800e0679f00d00ae20009003a0021ad200082
:103378000040e800e0679f00e44f5000030032007f
:103388003100e00002003a00f9ff3700ec2aa900fa
:10339800eceaab000d0c3200eceaa900aacbbf00a6
:1033a80088e9b700abcbbf0089e9b700915d800021
:1033b800814c8800d25d8000e35d8000c24c8800ab
:1033c800d34c8800f45d8000055e8000e44c8800e2
:1033d800f54c8800c3042000080c3700f0fe2f00cd
:1033e800f1ff2f0008004000e0804800150620008b
:1033f800850f5000e08f5800f40b3e00006001007c
:10340800610037009e003700f00b3700ef0b3700e4
:10341800ee0b3700a6063700ec0b3700eb0b370036
:10342800ea0b3700e90b3700e80b3700cb0637000b
:10343800e60b3700e50b3700e40b3700e30b3700ea
:10344800e20b370029073700e00b3700df0b3700a6
:1034580031073700dd0b3700dc0b3700db0b37009b
:103468004407370061083700d80b3700d70b3700ff
:10347800d60b37006b083700d40b3700d30b370057
:10348800d20b37008908370094083700cf0b370074
:10349800ce0b3700cd0b3700cc0b3700cb0b3700ea
:1034a800ca0b3700c90b3700c80b3700c70b3700ea
:1034b800c60b3700c50b3700c40b3700c30b3700ea
:1034c800b2093700b6093700c6093700dc093700ea
:1034d800df093700e3093700f9093700a00a370088
:1034e800a30a3700b90b3700b80b3700b70b370002
:1034f800b60b3700b50b3700b40b3700b30b3700ea
:10350800b20b3700b10b3700b00b3700af0b3700e9
:10351800ae0b3700ad0b3700ac0b3700ab0b3700e9
:10352800aa0b3700a90b3700a80b3700a70b3700e9
:10353800a60b3700a50b3700a40b3700a30b3700e9
:10354800a20b3700a10b3700a00b37009f0b3700e9
:103558009e0b37009d0b37009c0b37009b0b3700e9
:103568009a0b3700990b3700980b3700970b3700e9
:10357800960b3700950b3700940b3700930b3700e9
:10358800920b3700890a37000040eb00e0679f0084
:10359800c8ae20008081eb000081fb00c210dd0076
:1035a800a00220000100400060007c00e10f400004
:1035b800090032000100440010689000a249e300ad
:1035c80005003a008849e200480b3a0001007800fb
:1035d800a002b00003307c006f6397000640e8004b
:1035e800e0679f00e74f5000ebff36000040eb001c
:1035f800e0679f00a2c9bf00494be300390b3200c6
:1036080012002000b3b4200004032000e2679f00ea
:10361800840f5100070032008200780013407800c0
:103628000101e8008381e800a249e30005003200b7
:10363800f6ff370000c3b300804f5100630b320020
:103648008280fb0081804000a0b4200061407800a7
:103658008001eb000004e00002003200a2e9b7009c
:1036680043032000ef6097000180fb00000040004a
:103678000041eb00a1b4200002f078005f0b370096
:1036880086f60700c0ef9f0080f79f0083f60700cb
:10369800a0ef9f0090f79f0080f607000080fb00d6
:1036a80009f02f0009066600000676007bf6070081
:1036b80080ef9f004800dd00f80f20000806660034
:1036c8000006760075f607000080fb008985650016
:1036d8008085750071f60700e0e79f004800dd006f
:1036e80088856500808575006cf60700c0e79f0037
:1036f8006af60700b0e79f002fed97000a427800ae
:103708000438a3000c0032000040eb00e0679f0083
:103718000044780089ac200060f607008880fb0030
:1037280080f07c00ef6297000544e800e8679f009e
:10373800e74f5400f8ff36000a48a3000c00320097
:103748000040eb00e0679f000044780009ac2000cf
:1037580052f607008880fb0080f07c006f639700ba
:103768000644e800e8679f00e74f5400f8ff36007a
:10377800c04c8000e10f400002003200e50f460017
:10378800140336000040eb00e0679f000b0578004b
:103798000041780003af2000930078000100e000aa
:1037a8000700320031009000800f550004003a00f5
:1037b80031409000bfe0970080cf5000000b3200ee
:1037c8000241e800e2679f008381e800e74f51006b
:1037d800f1ff3a000ff1970063406100e14f50009c
:1037e8007f023a002df60700e0679f00e14f500086
:1037f800c1013a00ed0aab00bf013200306280001f
:103808008a0f5000f00a320010c0b300c06f9f004a
:1038180022f60700d06f9f0020f60700e06f9f0098
:103828001ef6070080779f001cf6070090779f0020
:103838001af60700004578008040e800a1779f004d
:1038480070cdb300a349e30002003e000140e80048
:10385800a0779f0030cbb300a349e30003003e00ec
:103868002f7097000040e800a0779f00f0c8b300d1
:10387800a349e30003003e002f7097000040e800d2
:10388800a0779f00b0c6b300a349e30003003e0041
:103898002f7097000040e800a0779f0070c4b30025
:1038a800a349e30003003e002f7097000040e800a2
:1038b800a0779f0030c2b300a349e30003003e0095
:1038c8002f7097000040e800a0779f00ef689700ee
:1038d8005f6a97008f9997000b01780010c0b300ba
:1038e80019f607000004e000fc003200c04c80001c
:1038f800e10f4000f9003a000040eb00806f9f00a4
:103908000b0478000002eb0003ad2000ef6a97007b
:10391800060037000240e800806f9f000402e800bc
:103928008381e800e40f52004a0032000441780025
:10393800930078000100e000f6ff32006148900033
:10394800854f5000f3ff3a0041009000880f500067
:10395800f0ff3a00e34f52003e003e0004004200f0
:1039680009ad200060847c00a0fc2f000080470087
:10397800aa2f07005fa29700efa29700048cbe0051
:103988000f6897000080fb000000400060817c0009
:10399800f24890002f709700814f50008a0a3e002d
:1039a800854c8000550198000f6897000080fb0047
:1039b8000000400060807c002f73970076489800d4
:1039c8000f6897000080fb0000004000e0807c004a
:1039d8002f7097000a405000905098008f989700d9
:1039e80030628000810f5000090032000100780029
:1039f80010f60700f84f5000720032005064800043
:103a0800000cb20001042000810f50006d003a0044
:103a1800a81f070004c9bf000008a3006b0a3a00ea
:103a28008f6897000180fb000000400002ad200075
:103a38006000790010509000a0779f00c0fa2f0016
:103a4800008147000b00780034f6070003012000ce
:103a58006a0a37000f98970091fa2f0001814700f2
:103a68008100e900818047009bf607000004e00020
:103a78009b0532000f6897000080fb0000004000a3
:103a880001ad2000608078006f6997006248980057
:103a98000f6897000080fb000000400060807800fd
:103aa8004b0098000f6897000080fb000000400062
:103ab80060807800834c8000530098000f6897005e
:103ac8000080fb0000004000608078002f729700a3
:103ad800744898000f6897000080fb0000004000c1
:103ae8006081780052009000880f50000600320074
:103af80012089000f18f2f00010060000080a000e4
:103b0800100998000500370012089000f18f2f0067
:103b1800010060000030b300100998000f6897009a
:103b28000080fb000000400002ad2000e0007900aa
:103b38001108900000b0a000900898000f68970046
:103b48000080fb0000004000e00079002f70970023
:103b58000a405000905098008f989700306280007b
:103b6800810f50000900320001007800b1f507000c
:103b7800f84f50001300320050648000000cb2006f
:103b880001042000810f50000e003a00491f070071
:103b980004c9bf000008a3000c0a3a002f70970060
:103ba8000a405000a0779f008f689700c5fa2f0041
:103bb800058147000b007800d8f5070003012000b5
:103bc8000e0a370004c9bf000008a300ca003a0063
:103bd8000f6897000080fb00000040000aad20003d
:103be800e0047d00690490000800e0000a003a0043
:103bf800e0c0b300182f0700e00498000f68970092
:103c08000080fb000000400060007d006004900020
:103c18000800e000320532004f6b9700064c780030
:103c28005f68970010449800ef6897002144980057
:103c38000f719700324498009f7197004344980091
:103c48002f729700544498000cf5070060449800c0
:103c5800cfe297000540e900704498006fe39700b1
:103c6800064c98001b4c98000fe89700204c9800d1
:103c78003c4c9800afe89700414c98004fe99700fa
:103c8800524c98000f6897000080fb00000040002d
:103c980009ad200060847c00e0fc2f000080470014
:103ca800de2e07007fa297008faa970024049800b1
:103cb800350498000f6897000080fb000000400062
:103cc80060817c0012089000f18f2f0001006000d5
:103cd80000a0a0001009980001053700804c800062
:103ce80054f50700f84f50000f0032005064800070
:103cf800000cb20001042000810f50000a003a00b5
:103d0800834c80008b8f510012003200714cec0004
:103d1800004178008b00780003007800d7f707008f
:103d28000004e0000b003a00814c8000f061800044
:103d3800808f5000ea043a0012c720001241780030
:103d4800306280008b007800ccf707000004e000a8
:103d5800e3043a008f98970030628000810f50008a
:103d6800090032000100780032f50700f84f5000d2
:103d78001300320050648000000fb20001062000da
:103d8800810f50000e003a00ca1e070004c9bf0088
:103d98000008a3008d093a002f7097000a405000d0
:103da800a0779f00c1fa2f000181470041c0b300ee
:103db8000b00780059f50700030120008f09370030
:103dc800a2fa2f00828047000c007800bbf707009a
:103dd8000004e0003404320004c9bf0061456000fb
:103de80031043a0071902000914078000180fb0076
:103df80089902000cf69970003f07c000140e8001b
:103e08000080fb005f6a970004f07c0001c0e800b6
:103e18000080fb00ef6a970005f07c0063c040005b
:103e28000080fb007f6b970006f07c0064c04000b8
:103e38000080fb000f71970002f07c0065c0400015
:103e48000080fb009f71970003f07c00e6c04000f3
:103e58008000fd0007e9b7008000fd0068902000a1
:103e68001844780085f407008880fb0080f07c0007
:103e78000840e9000080fb00a1c0b30001f07c000d
:103e880008c0e9000080fb0071c4200011f07c002c
:103e9800634054000080fb0061c4200011f07c00e6
:103ea800644054000080fb000fea970004f07c0097
:103eb800654054000080fb000cf07c006640540014
:103ec8000080fb000af07c00674054000080fb0083
:103ed80091c0b30001f07c006844540008007800e9
:103ee80006e9b7005f90970061fa2f008f804000c5
:103ef800ebf40700ec033700ef629700e4cf5200c1
:103f080077043a0065f40700804678000b077800cc
:103f180030628000808f5500710432004fe39700b3
:103f2800e14f53008400360091fa2f0001804700ca
:103f3800d3f507000004e000690432001f68970009
:103f48000080fb000000400064004000caae200072
:103f5800e0007d00310890000040a100b008980002
:103f68001f68970057f407001f6897000080fb0040
:103f7800000040006400400060007d00829820003e
:103f880012417800224098001f6897000080fb00cb
:103f9800000040006400400060007d008ff1970041
:103fa800334898001f6897000080fb00000040001d
:103fb8006400400060007d001ff2970024489800cc
:103fc8001f6897000080fb0000004000640040006c
:103fd80060007d004c0098001f6897000080fb007f
:103fe800000040006400400060007d003b00980035
:103ff8001f6897000080fb0000004000640040003c
:10400800e0007d00cfe297000540e900c04098003d
:104018001f6897000080fb0000004000640040001b
:1040280060007d003fe39700364098001f689700c6
:104038000080fb00000040006400400060047d0038
:1040480088c9bf00042e070080047800000c78009f
:104058000000e0000e003a001f6897000080fb0097
:10406800000040006400400060007d00fc2d070057
:104078001f6897000080fb000000400064004000bb
:1040880009307d000b1e070089017800db08370026
:104098000040eb00e0679f001f6897000080fb006e
:1040a8000000400064004000c1ae2000608078003d
:1040b8009000780040c0b3008048780010c0b3007a
:1040c800e0679f008849e2000f003200caae200076
:1040d800ef6497001f6897000080fb000000400015
:1040e8006400400060007d000984fb001004440067
:1040f800eaf30700004c78008944e800e9679f006c
:104108008849e200f2ff3a00ec0aa8000a003700ea
:104118005cacef00ef6097000181fb006a11b90009
:1041280002007800500cb400a2c0b30088007800e8
:10413800922a0700220037000e0078003df407009d
:10414800e0679f00f84f5000e503320064f607006f
:10415800d81d07000040eb0088e9b70082992000cd
:10416800c3c72000070009003359780004992000cc
:10417800c5c7200007000900355a7800e0679f008e
:1041880048c52000a2c0b3000440bc008162800082
:1041980081004100a2c0b30008007800422a07004d
:1041a800e0628000800f5700d9ff32006f639700ec
:1041b8000640e800e0679f00e74f5000f1ff360037
:1041c800c30320000d68a3008c083a0001c2b300a5
:1041d80001c0660088e9b700d304200087083700cb
:1041e8004fe19700e14f51007400360093fa2f0019
:1041f8000380470022f507000004e000b8033200fe
:104208001f6897000080fb00000040006400400029
:10421800cbae2000e0807d00310890000040a10076
:10422800b00898001f689700a6f307001f6897005a
:104238000080fb00000040006400400060807d00ba
:104248008498200014427800244098001f68970042
:104258000080fb00000040006400400060807d009a
:104268008ff29700354898001f6897000080fb0080
:10427800000040006400400060807d001ff397004c
:10428800264898001f6897000080fb000000400047
:104298006400400060807d004c0098001f68970013
:1042a8000080fb00000040006400400060807d004a
:1042b8003a0098001f6897000080fb00000040004b
:1042c80064004000e0807d004fe197000240e90073
:1042d800c04098001f6897000080fb000000400065
:1042e8006400400060807d00bfe197003340980083
:1042f8001f6897000080fb00000040006400400039
:1043080060847d0088c9bf00532d070080047800b1
:10431800000c78000000e0000e003a001f689700cb
:104328000080fb00000040006400400060807d00c9
:104338004b2d07001f6897000080fb00000040001d
:104348006400400009b07d005a1d0700890178000b
:104358002a0837000042eb00e4679f005b4c8000ae
:104368008c9820001c4678000c04e0000f003200f6
:10437800cdae2000ef6497001f6897000080fb0017
:10438800000040006400400060807e000984fb005b
:104398001004440041f30700004c78008944e80009
:1043a800e9679f008849e200f2ff3a005b4c880009
:1043b8000c00780088e9b700ec0aa8003062800099
:1043c8008a0f5000460332008a4c880053032000ad
:1043d8000a0837008ff2970063c46200e14f540067
:1043e800e1013a002df3070080407800e0679f0064
:1043f800e64f5000b4003a0028f3070088e9b700f8
:104408002c1d070071902000914078008181fb00ed
:1044180072c0b30080902000827178008140e8006b
:104428000100780007e9b70000ac200069f8070030
:10443800f84f500021003a000004fd0011edb700cc
:104448000004fd00d4f407000004e000040032007a
:1044580003f50700e0679f00f84f500015003a0089
:1044680072902000124178008280fb008390200027
:10447800d0cfb30080f079000240e8000080fb0054
:1044880080c0eb0001f0790002c0e8000080fb006a
:1044980021c0b30001f079006341410002007800b7
:1044a80007e9b7000040eb0011edb70000467800bf
:1044b80014003700a5f50700116def007290200079
:1044c800124178000280fb008390200041c8200040
:1044d80011f079000240e8000080fb0051c820007c
:1044e80011f0790002c0e8000080fb008040eb007a
:1044f80001f07900634141000200780007e9b70044
:104508001cc0b30026bc2000c079280007000900a1
:10451800305b78000040eb00e0679f0000427800c5
:104528008590200026bc200062902000124178006f
:10453800804178008280fb000480fb006700100047
:1045480060407b0080f07a000241e9008341e80086
:1045580003427800e7cf5100f6ff360002007800ea
:1045680006e9b7000040eb00e0679f0000427800d2
:104578008990200005ac2000804178000244780032
:104588008280fb000480fb006700100060c07a0096
:1045980080f07c000241e900024578008341e80090
:1045a80003427800e7cf5100f4ff3600e3679f002d
:1045b8000001fd0006e9b7000001fd00aff20700a9
:1045c8008a80fb0080f07c000a40e9000080fb0044
:1045d80011c0b30001f07c00634054000080fb0070
:1045e80071c4200011f07c00644054000080fb007e
:1045f80061c4200011f07c00654054000080fb007d
:10460800efe0970001f07c00664054000b41780011
:104618000080fb000bf07c00674054000080fb002a
:1046280081c1b30001f07c00684054000080fb00a9
:1046380091c0b30001f07c006940540006e9b7005e
:104648000c04e00002003200eceaa8000100370088
:10465800eceaa90088c9bf00aaebb70010c0b300f4
:10466800abebb70021648000915d880004568000a0
:1046780015568000d45d8800e55d880020568000ce
:1046880031568000f05d8800015e8800efe09700f9
:104698004808dd008280fb0001007000f0558800aa
:1046a80061fa2f008f804000fdf20700404c800027
:1046b8006a006000ea0f5000f20632008b49a80039
:1046c800030120004d073700ed0aab0084023200d9
:1046d800e14f50004cfc3200e34f500064003a00b8
:1046e80004c9bf00614760007d023a00799020004c
:1046f800994478000980fb008a90200001707d00b1
:104708000944e8000004fd0007e9b7000004fd00c3
:1047180062f207000884fb0000747d0089c4e80089
:104728008004fd0007e9b7008004fd005bf2070084
:1047380071902000914078000181fb0000717d009c
:104748008140e8008000fd0007e9b7008000fd0017
:1047580052f2070071902000914078000181fb001f
:1047680000717d008140e8008000fd0007e9b70086
:104778008000fd004f1c070030628000800f56004b
:1047880004003a000e00780007e9b7008001eb004a
:104798001a07370062902000124178000280fb005f
:1047a800839020003fe2970004f079000240e9007e
:1047b8000080fb00cfe297008540e90001f0790016
:1047c80002c0e9000080fb006fe3970006f0790063
:1047d800634051000080fb000bf0790064405100f9
:1047e8000080fb008fe8970001f0790065405100d8
:1047f8000080fb000cf07900664051000080fb004f
:104808002fea970004f07900674051000080fb0010
:10481800cfea970005f0790068415100020078005e
:1048280006e9b70066fa2f000f034300640443004b
:1048380063014300880078000c007800e4f1070069
:104848000004e000bf003a00880078000c007800ff
:104858001af507000004e000ba003a0007e9b700bb
:10486800f0c7b30006e9b7008001eb00e3063700a4
:10487800e24f50001a023a0008f2070080e79f0052
:1048880006f2070090e79f0004f20700807f9f0070
:1048980002f20700907f9f0000f20700a07f9f00b0
:1048a800fef10700d0e79f00b07f9f00fbf10700f3
:1048b800004778000fe29700df9997000b01780016
:1048c8009fe0970010c0b3001ff207000004e0004b
:1048d80040003200cf9e97000001eb0003ad20009e
:1048e800050037000a45e8000201e8008381e80076
:1048f800e40f51000d003200024578008204780070
:10490800930078000100e000f6ff32006148900053
:104918001fe29700804f5200f2ff3a0041009000da
:104928008d0f5000efff3a0003003700e44f5500a9
:10493800890032008a84fb000984440000ad20000d
:1049480000044400180078002050900062c0b300b2
:104958000440bc00016380008100410062c0b300d4
:1049680020c6200050280700642cef00980078002b
:1049780001509000804f5700030031008e5098007e
:10498800854c8000356388008980440000ad200094
:1049980000844000180078002050900062c0b300e6
:1049a8000440bc00006380000000410062c0b30006
:1049b80021c6200071280700306280008d0f50004a
:1049c800650032001800780010509000004447003d
:1049d8002e06370030628000800f56005e003200dd
:1049e800674447004ac0b30028063700b11b0700d8
:1049f800e44f5500070032000a80fb000000400029
:104a080001ad20006080780050009000d0979f0092
:104a180006003700a6fa2f00868047000b007800b2
:104a2800a6f407000004e000680632007190200038
:104a3800914078008181fb008290200020c0b30063
:104a4800807179000140e8000080fb008fe1970049
:104a58000370790001c0e8000080fb001fe29700a6
:104a68000470790063c040000080fb008f7a9700d3
:104a78000570790064c040000080fb001f7b970030
:104a88000670790065c040000080fb00af79970090
:104a98000370790066c040000080fb005fe2970069
:104aa8000470790067c040000080fb00087079003e
:104ab800e8c040000100780007e9b70061902000d5
:104ac800914078000180fb00bfe2970005707900f3
:104ad8000140e9000080fb004fe397000670790071
:104ae80001c0e9000080fb00efe197000370790046
:104af80063c050000080fb000b70790064c0500058
:104b08000080fb000fea97000470790065c0500030
:104b18000080fb000c70790066c050000080fb002c
:104b2800afea97000570790067c050000080fb006d
:104b38004feb970006707900e8c05000010078003c
:104b480006e9b7005f90970061fa2f008f80400058
:104b5800d3f10700cb053700561b07008869ef0023
:104b6800330720002506370030628000800f56008a
:104b780003003200ed0aab0007003a005801370085
:104b88008b4c88006c4c880020c0b3008ee9b700bd
:104b980053032000190637004fe09700e14f5000fb
:104ba8004f01360004c9bf00614060004c013a0063
:104bb8008ff097000181fb004611de00a4fa2f0058
:104bc800848147008c007800b1f5070080047800e4
:104bd8000000e00003003200e10f500057003a00e7
:104be8003f01370062902000124178000280fb00ec
:104bf80083902000bfe2970005f079000240e900a9
:104c08000080fb004fe397008640e90001f079003f
:104c180002c0e9000080fb00efe0970001f0790096
:104c2800634051000080fb000bf0790064405100a4
:104c38000080fb000fea970004f0790065405100fe
:104c48000080fb000cf07900664051000080fb00fa
:104c5800afea970005f07900674051000080fb003b
:104c68004feb970006f07900684151000200780088
:104c780006e9b7008849e2000b0032008304780097
:104c8800789020001844780004f107008880fb0021
:104c980080f07c000844e8000800780007e9b700c5
:104ca8008849e200f6ff3a005f90970072fa2f00f9
:104cb800828047007af107008041eb00e3679f009c
:104cc8008001eb00b0588000e10f4000070032007f
:104cd8001400370081017800120078008100e80094
:104ce80064014100e10f400010003a004218dd0065
:104cf800a002b000c1ae20000bb078006f62970030
:104d08000480fb004200dd008002b000010040008a
:104d1800bfe29700054878007f6397001640980027
:104d28006100370011002000a2b12000e1679f0058
:104d3800e88f5000e7ff3a005b00370068902000da
:104d480018447800cdf007008880fb00829020008e
:104d5800807079000840e9000080fb00a1c0b30022
:104d68000170790008c0e9000080fb0071c42000d0
:104d780011707900634054000080fb0061c420007a
:104d880011707900644054000080fb00efe0970048
:104d980001707900654054000b4278000080fb00e8
:104da8000b707900664054000080fb008040eb00e7
:104db80001707900674054000080fb0091c0b30087
:104dc80001707900684454000800780006e9b700cb
:104dd80073902000934178008380fb0030c0b300bb
:104de800807079000340e80007e9b700e28f5400bb
:104df80006003a000080fb0011c0b3000170790082
:104e080003c0e80007e9b70017003700e38f540034
:104e180007003a000081fb0021c0b3008090200009
:104e28000171780003c0e80007e9b7000e003700f9
:104e3800e48f540006003a000080fb0081902000b7
:104e480009f0780003c0e80007e9b700060037005a
:104e58000081fb008040eb00809020000171780009
:104e680003c0e80007e9b70071902000914078007e
:104e78000180fb0082902000047079000140e80066
:104e88000080fb00efe197000370790081c0e80023
:104e98000100780007e9b700804c800061fa2f0014
:104ea8008f804000fef00700821a0700f5043700e3
:104eb8000040eb00e0679f00804078008398200066
:104ec800004178000180fb00f000400068004000cd
:104ed800e0f079000241e80082407800e74f510095
:104ee800f8ff3600e2679f0000992000b9f5070037
:104ef800e0679f00f84f50000500320024648000ee
:104f0800744c88008869ef00730120003b05370066
:104f180021f207000004e0000b00320050f2070005
:104f2800f84f50000800320008f3070088c9bf0096
:104f380038ebb70021648000714c88008869ef0065
:104f4800730120002d05370010c0b30088e9b700b1
:104f58008ea9ef007301200028053700e098200093
:104f680022c0b300904f11005d003a00504c800001
:104f78001004e0005a003a00614c8000804c800028
:104f88004ef20700f84f500019003a0034f20700bb
:104f9800f84f5000520032008b2ca8008acca80091
:104fa8008aeca8000040eb00e0679f000041780011
:104fb800c3c7200000427800804078000280fb00d0
:104fc80003004000044878008140e800014178006f
:104fd800e7cf5000f9ff3600e1679f00706cec00e6
:104fe80050638000e2c0b300e1c62000e32607005a
:104ff800a1c9ab00030032008a8ca9008aaca900c1
:10500800020037008a8ca8008aaca9008b0ca80083
:10501800534c8000a34090008107b200c508dd0012
:1050280040648000f20f2f00020060000100700051
:105038004064880093409000cc08dd00f2ff200017
:1050480002006000010070004064880093409000f6
:10505800010fb200c408de005064800002ff2f0078
:105068000201600001017100a3c9bf0088ecb7000c
:10507800014d8000cf08de00ca08dd00020078007c
:1050880000a0a10001007000506488008040eb007f
:10509800234090000004e00001003d0011c0b3006f
:1050a800618060004b00dd005164800001b0a10008
:1050b8008080700051648800614c800031648800f1
:1050c800824c8000226488008fc9bf008cecb70036
:1050d8004063800022c1b300c1c72000a726070093
:1050e800f41907008001eb00c40437000099200080
:1050f80038f50700e0679f00f84f5000b30432000e
:1051080021648000c14c880010c0b30088e9b70052
:1051180033022000b9043700ec6aab0011003200fa
:1051280040b4200022c0b300904f11005b043a0045
:105138000040eb0098e9b70099e9b7009ae9b70091
:105148009be9b7009ce9b7009de9b7009ee9b70065
:105158009fe9b70088e9b7009ff40700c303200060
:10516800a60437000040eb009bf40700d30320009f
:10517800a20437008040eb0030c3b3003d22070093
:105188008040eb0040c3b3003a220700f1c0b300ef
:10519800f02220005a2207008e49e20097003a00c8
:1051a8008949e20005003a000489a90040ccb3000f
:1051b80088e9b700730320009004370000c3b300e8
:1051c800a529070000047800b05988000000e00015
:1051d80006003a00504c80000000e000f2ff320068
:1051e8009f290700584c8800efff37000040eb006c
:1051f80035ebb700534c8000e0679f008040780093
:105208003a0bab001a0032009009ab0018003a00c4
:1052180094cfb300934f120014003e0035cbbf006b
:1052280032c0b3000440bc00b0598000017178005e
:1052380035cbbf0032c0b3000440bc00b059800079
:1052480000014100934278001541980035cbbf001a
:1052580032c0b3000440bc00b059800000014100d6
:105268000040eb0020419800356bec008301e8001a
:10527800804c8000914c80008100d1000080d300d8
:10528800804c8800914c8800d0598000e1598000fa
:105298008100d1000080d300d0598800e1598800ee
:1052a8006f6397008640e800e1679f00ffcf5000da
:1052b800d3ff360035cbbf00e0679f002e003200d9
:1052c80016c0b300f6679f006f6197000280fb006d
:1052d8000000e9004240a90024003400864178001b
:1052e8000340780032c0b3000440bc00b1598000cc
:1052f8000102410063015200924290001440900064
:10530800854f500010003100a24090009241780073
:10531800144978000400e8003041780062fa9f00e0
:105328001040780070fa9f007f60970032c0b30089
:105338000440bc00b05980000001410021419800a0
:1053480015419800034978007f6097008041e80084
:10535800f3679f006f6197000280fb000000e9007f
:105368008380fb00810f5000ddff3d000240e90013
:10537800e0679f00d3ff3a00504c80000000e00037
:1053880002003200362907008a29ef00354be20077
:1053980004003a00b059800031290700362bef008d
:1053a80081ff3700346bef0010c0b3008ee9b700ff
:1053b80034cbbf0032c0b3000440bc00b0598000f9
:1053c800000141001281fb001000200001002000b4
:1053d8000201e9000300330000004000818048001a
:1053e800fbff3700804c8800914c88003ecbbf0003
:1053f8008fe9b700830220000004370034cbbf00d8
:1054080032c0b3000440bc00b05980000001410024
:10541800919820009140780021419800604c8000cc
:105428000000e00006003200600c90000c29070024
:1054380008007800684c88000800e000faff3a008d
:10544800344bec0034ebb70052b320001241780023
:105458000204e100d4ff3a00346bef00305a8000b8
:10546800604c8800e10f400003003a000f0037004d
:105478000040e80034ebb70034cbbf0032c0b300c3
:105488000440bc00b0598000624078002cf107004d
:105498000004e0000500320034cbbf0053b3200005
:1054a800934178000304e100f1ff390035cbbf00d8
:1054b800344be30002003a008ca9ef00346bef0094
:1054c80011c0b300e1679f0050b3200090cf1000d7
:1054d8001d00360001407800b159800032c0b30089
:1054e8000440bc008281400034cbbf0032c0b3000e
:1054f8000440bc0001014100a240900023409000fc
:1055080080cf500009003600604c8000e10f400059
:10551800040032001340780009f107000004e0009d
:1055280002003a006f60970034ebb7006f62970093
:105538000440e800e0679f0055b3200095427800da
:105548000504e100e4ff3900604c8000e10f4000f1
:105558000d003a00300880008ce9b7005008800040
:10556800f043b2008de9b70034cbbf0032c0b300be
:105578000440bc00b059800062407800f0f0070099
:105588000004e000f3ff3a00462cef00d3180700b0
:10559800ed0aa90008f1070034cbbf0032c0b30000
:1055a8000440bc00b0598000801f78006240780039
:1055b8008ee9b7004f007800f0c0b30094e9b70057
:1055c80095e9b70010c0b30088e9b7002c0cd500e6
:1055d800e2006000404c80000010a1000100700053
:1055e800404c8800d30220008403370080992000b3
:1055f800f8f30700e0679f008849e20073033a0068
:10560800f84f50007103320026648000864c8800f1
:1056180038cbbf0088e9b7008969ef00c3042000d0
:1056280076033700b05980000000e0000200320025
:105638008b280700362bef008849e20001003a006a
:10564800ed0aa8008040eb000100780071ecb7007b
:10565800d0432100906388007a0cab0009003a001f
:10566800f0962700a063880010002000b06388002f
:105678008000fd0078ecb70079ecb7008000fd00f1
:105688007a0ca80050638000e2c0b300e1c6200095
:105698003a25070010c0b300ecf007000489a90000
:1056a8000469a800730320005403370088c9bf00a9
:1056b800e303200051033200f54f400003003a0095
:1056c8008869ef00e30320004c03370060ccb30087
:1056d80088e9b700e30320004803370004c9bf0086
:1056e800e840600020ccb3000e003200c04c8000bf
:1056f800e10f400004003200e30f400002003200d6
:10570800e40f4000bd003a0081fa2f0001804700f5
:10571800dbef0700804078000004e00009003a0051
:1057280010cfb30088e9b7000409a900f0c7b30097
:1057380006e9b7000100780007e9b7004303200035
:105748002e0337000f6897000080fb000000400020
:1057580064004000caae2000e0007d0031089000df
:105768000040a000b00898000f6897000080fb0078
:10577800000040006400400060027d00740090005a
:105788008408900002e22400030020000000410089
:105798008180490070029800010a980061902000f9
:1057a800914078007290200092c01000f147b0003c
:1057b8000100780088e9b7000f6897000080fb00b7
:1057c800000040006400400060007d002140980017
:1057d8000f6897000080fb00000040006400400054
:1057e800e0007d0091c9bf004600dd000034a00044
:1057f800b04898000f6897000080fb000000400048
:1058080064004000e0007d0089c9bf0000404000fe
:10581800a04898000f6897000080fb000000400037
:105828006400400060007d00c34c80004300980085
:105838000f6897000080fb000000400064004000f3
:1058480060007d0034628000340098000f68970083
:105858000080fb00000040006400400060007d0004
:105868000599200095427800454098000f689700f8
:105878000080fb00000040006400400060007d00e4
:10588800269a200016437800364098000f68970043
:105898000080fb00000040006400400060047d00c0
:1058a80088c9bf00ec27070080047800000c780046
:1058b8000000e00014003a000f6897000080fb0029
:1058c800000040006400400060007d00e4270700fd
:1058d8000f6897000080fb00000040006400400053
:1058e80009307d0010cfb30088e9b7000409a9008a
:1058f800f0c7b30006e9b7000900780007e9b70068
:1059080043032000bd0237000040eb00e0679f0022
:105918006390200093417800e0c7b30080cf510026
:1059280015003e00c4ae200085902000004378009a
:105938006f6197000f6897000080fb00000040002f
:105948006400400060007a008280fb009080400084
:105958000340e80006e9b7000080fb00e0c87a00d1
:105968000241e800e2679f006390200093417800bd
:1059780086cf5100eeff36008869ef000749e20044
:1059880017003200c5ae2000869020006f62970095
:1059980082982000124178000f6897000080fb0071
:1059a800000040006400400060807a008481fb00b1
:1059b800900078000280fb0060407b0080f1780056
:1059c8000442e800e4679f000241e8000200780012
:1059d80088e9b7000749ed0007e9b700ebff3a008f
:1059e800ec0aa8000409a900f0c7b30006e9b7004b
:1059f8000769ef008001eb00800237001299200050
:105a080012417800c14c8000a4fa2f00848147001d
:105a180010c0b3001ef207000004e00003003200cb
:105a2800e14f500051003a00680237008042eb0015
:105a3800e5679f008000eb004a4be200130032004c
:105a480012002000c3b4200004032000e2679f0076
:105a5800840f51000700320082007800134078005c
:105a68000101e8008381e8000004e000070032003b
:105a7800f6ff370000c3b300804f510002003a0020
